{
  "contractName": "DusterTokenSale",
  "abi": [
    {
      "constant": true,
      "inputs": [],
      "name": "tokenContract",
      "outputs": [
        {
          "name": "",
          "type": "address"
        }
      ],
      "payable": false,
      "stateMutability": "view",
      "type": "function"
    },
    {
      "inputs": [
        {
          "name": "_tokenContract",
          "type": "address"
        }
      ],
      "payable": false,
      "stateMutability": "nonpayable",
      "type": "constructor"
    }
  ],
  "bytecode": "0x608060405234801561001057600080fd5b506040516020806101ad83398101806040528101908080519060200190929190505050336000806101000a81548173ffffffffffffffffffffffffffffffffffffffff021916908373ffffffffffffffffffffffffffffffffffffffff16021790555080600160006101000a81548173ffffffffffffffffffffffffffffffffffffffff021916908373ffffffffffffffffffffffffffffffffffffffff1602179055505060ea806100c36000396000f300608060405260043610603f576000357c0100000000000000000000000000000000000000000000000000000000900463ffffffff16806355a373d6146044575b600080fd5b348015604f57600080fd5b5060566098565b604051808273ffffffffffffffffffffffffffffffffffffffff1673ffffffffffffffffffffffffffffffffffffffff16815260200191505060405180910390f35b600160009054906101000a900473ffffffffffffffffffffffffffffffffffffffff16815600a165627a7a723058207c26ed9c661cef9f355fa260e04c31a3aa69780eb1b491daa4bcf18ca96fce190029",
  "source": "pragma solidity ^0.4.2;\n\nimport \"./DappToken.sol\";\n\ncontract DusterTokenSale {\n    address admin;\n    DappToken public tokenContract;\n// Constructor\n    constructor(DappToken _tokenContract) public {\n        // Assign an admin\n        admin = msg.sender;\n\n        // Assign our token contract\n        tokenContract = _tokenContract;\n\n        // Token Price\n\n\n    }\n}",
  "sourcePath": "/Users/dibs/Desktop/ETHIndia/waerootTokenSale/contracts/DusterTokenSale.sol",
  "compiler": {
    "name": "solc",
    "version": "0.4.24+commit.e67f0147.Emscripten.clang"
  },
  "schemaVersion": "2.0.1",
  "updatedAt": "2018-08-28T21:20:57.188Z"
}